{
  "contractName": "DecentralizedPension",
  "abi": [
    {
      "constant": true,
      "inputs": [
        {
          "name": "",
          "type": "uint16"
        },
        {
          "name": "",
          "type": "uint8"
        }
      ],
      "name": "totalDepositsByMonth",
      "outputs": [
        {
          "name": "",
          "type": "uint256"
        }
      ],
      "payable": false,
      "stateMutability": "view",
      "type": "function",
      "signature": "0x0f0f3ad8"
    },
    {
      "constant": true,
      "inputs": [],
      "name": "totalMonthFactor",
      "outputs": [
        {
          "name": "",
          "type": "uint256"
        }
      ],
      "payable": false,
      "stateMutability": "view",
      "type": "function",
      "signature": "0x19b732f5"
    },
    {
      "constant": true,
      "inputs": [],
      "name": "pensionToken",
      "outputs": [
        {
          "name": "",
          "type": "address"
        }
      ],
      "payable": false,
      "stateMutability": "view",
      "type": "function",
      "signature": "0x1a4897be"
    },
    {
      "constant": true,
      "inputs": [
        {
          "name": "",
          "type": "address"
        }
      ],
      "name": "monthPaidCount",
      "outputs": [
        {
          "name": "",
          "type": "uint256"
        }
      ],
      "payable": false,
      "stateMutability": "view",
      "type": "function",
      "signature": "0x1b5e1473"
    },
    {
      "constant": true,
      "inputs": [
        {
          "name": "",
          "type": "uint16"
        },
        {
          "name": "",
          "type": "uint8"
        }
      ],
      "name": "minDepositByMonth",
      "outputs": [
        {
          "name": "",
          "type": "uint256"
        }
      ],
      "payable": false,
      "stateMutability": "view",
      "type": "function",
      "signature": "0x31c8d239"
    },
    {
      "constant": true,
      "inputs": [
        {
          "name": "",
          "type": "address"
        }
      ],
      "name": "isRetired",
      "outputs": [
        {
          "name": "",
          "type": "bool"
        }
      ],
      "payable": false,
      "stateMutability": "view",
      "type": "function",
      "signature": "0x6d3c6275"
    },
    {
      "constant": true,
      "inputs": [
        {
          "name": "",
          "type": "uint16"
        },
        {
          "name": "",
          "type": "uint8"
        }
      ],
      "name": "maxDepositByMonth",
      "outputs": [
        {
          "name": "",
          "type": "uint256"
        }
      ],
      "payable": false,
      "stateMutability": "view",
      "type": "function",
      "signature": "0x7f24ebd1"
    },
    {
      "constant": true,
      "inputs": [
        {
          "name": "",
          "type": "uint16"
        },
        {
          "name": "",
          "type": "uint8"
        }
      ],
      "name": "totalDepositsAmountByMonth",
      "outputs": [
        {
          "name": "",
          "type": "uint256"
        }
      ],
      "payable": false,
      "stateMutability": "view",
      "type": "function",
      "signature": "0x86ec456a"
    },
    {
      "constant": true,
      "inputs": [],
      "name": "creationTimestamp",
      "outputs": [
        {
          "name": "",
          "type": "uint256"
        }
      ],
      "payable": false,
      "stateMutability": "view",
      "type": "function",
      "signature": "0xb3311086"
    },
    {
      "constant": true,
      "inputs": [],
      "name": "globalFond",
      "outputs": [
        {
          "name": "",
          "type": "uint256"
        }
      ],
      "payable": false,
      "stateMutability": "view",
      "type": "function",
      "signature": "0xc1b76513"
    },
    {
      "constant": true,
      "inputs": [
        {
          "name": "",
          "type": "address"
        },
        {
          "name": "",
          "type": "uint16"
        },
        {
          "name": "",
          "type": "uint8"
        }
      ],
      "name": "depositsByUser",
      "outputs": [
        {
          "name": "",
          "type": "uint256"
        }
      ],
      "payable": false,
      "stateMutability": "view",
      "type": "function",
      "signature": "0xc5d58df1"
    },
    {
      "constant": true,
      "inputs": [
        {
          "name": "",
          "type": "uint16"
        },
        {
          "name": "",
          "type": "uint8"
        }
      ],
      "name": "hasWithdrawed",
      "outputs": [
        {
          "name": "",
          "type": "bool"
        }
      ],
      "payable": false,
      "stateMutability": "view",
      "type": "function",
      "signature": "0xdf16a105"
    },
    {
      "constant": true,
      "inputs": [
        {
          "name": "",
          "type": "address"
        }
      ],
      "name": "monthFactors",
      "outputs": [
        {
          "name": "",
          "type": "uint256"
        }
      ],
      "payable": false,
      "stateMutability": "view",
      "type": "function",
      "signature": "0xe157b254"
    },
    {
      "inputs": [
        {
          "name": "_dateTime",
          "type": "address"
        }
      ],
      "payable": false,
      "stateMutability": "nonpayable",
      "type": "constructor",
      "signature": "constructor"
    },
    {
      "anonymous": false,
      "inputs": [
        {
          "indexed": false,
          "name": "data",
          "type": "uint256"
        }
      ],
      "name": "Debug",
      "type": "event",
      "signature": "0x8a36f5a234186d446e36a7df36ace663a05a580d9bea2dd899c6dd76a075d5fa"
    },
    {
      "anonymous": false,
      "inputs": [
        {
          "indexed": true,
          "name": "sender",
          "type": "address"
        },
        {
          "indexed": false,
          "name": "amount",
          "type": "uint256"
        }
      ],
      "name": "Deposit",
      "type": "event",
      "signature": "0xe1fffcc4923d04b559f4d29a8bfc6cda04eb5b0d3c460751c2402c5c5cc9109c"
    },
    {
      "anonymous": false,
      "inputs": [
        {
          "indexed": true,
          "name": "sender",
          "type": "address"
        },
        {
          "indexed": false,
          "name": "amount",
          "type": "uint256"
        }
      ],
      "name": "Claim",
      "type": "event",
      "signature": "0x47cee97cb7acd717b3c0aa1435d004cd5b3c8c57d70dbceb4e4458bbd60e39d4"
    },
    {
      "anonymous": false,
      "inputs": [
        {
          "indexed": true,
          "name": "sender",
          "type": "address"
        },
        {
          "indexed": false,
          "name": "myActivatedPart",
          "type": "uint256"
        },
        {
          "indexed": false,
          "name": "distributionPercentage",
          "type": "uint256"
        },
        {
          "indexed": false,
          "name": "distributionAmount",
          "type": "uint256"
        },
        {
          "indexed": false,
          "name": "amount",
          "type": "uint256"
        }
      ],
      "name": "Withdraw",
      "type": "event",
      "signature": "0xe08737ac48a1dab4b1a46c7dc9398bd5bfc6d7ad6fabb7cd8caa254de14def35"
    },
    {
      "anonymous": false,
      "inputs": [
        {
          "indexed": true,
          "name": "sender",
          "type": "address"
        },
        {
          "indexed": false,
          "name": "amount",
          "type": "uint256"
        },
        {
          "indexed": false,
          "name": "monthFactor",
          "type": "uint256"
        },
        {
          "indexed": false,
          "name": "totalMonthFactor",
          "type": "uint256"
        }
      ],
      "name": "Retire",
      "type": "event",
      "signature": "0x259eea40cd1a9fc2e850006eade5cbbe9e3b0fd4458527750b9312b1f22ff7a2"
    },
    {
      "constant": false,
      "inputs": [
        {
          "name": "_amount",
          "type": "uint256"
        }
      ],
      "name": "deposit",
      "outputs": [
        {
          "name": "",
          "type": "bool"
        }
      ],
      "payable": true,
      "stateMutability": "payable",
      "type": "function",
      "signature": "0xb6b55f25"
    },
    {
      "constant": false,
      "inputs": [
        {
          "name": "_year",
          "type": "uint16"
        },
        {
          "name": "_month",
          "type": "uint8"
        }
      ],
      "name": "claim",
      "outputs": [
        {
          "name": "",
          "type": "bool"
        }
      ],
      "payable": false,
      "stateMutability": "nonpayable",
      "type": "function",
      "signature": "0xbf31eb0b"
    },
    {
      "constant": false,
      "inputs": [
        {
          "name": "_amount",
          "type": "uint256"
        }
      ],
      "name": "retire",
      "outputs": [
        {
          "name": "",
          "type": "bool"
        }
      ],
      "payable": false,
      "stateMutability": "nonpayable",
      "type": "function",
      "signature": "0x3790cf57"
    },
    {
      "constant": false,
      "inputs": [
        {
          "name": "_year",
          "type": "uint16"
        },
        {
          "name": "_month",
          "type": "uint8"
        }
      ],
      "name": "withdraw",
      "outputs": [
        {
          "name": "",
          "type": "bool"
        }
      ],
      "payable": false,
      "stateMutability": "nonpayable",
      "type": "function",
      "signature": "0x7583e607"
    }
  ],
  "bytecode": "0x608060405234801561001057600080fd5b50604051602080613ac78339810180604052810190808051906020019092919050505042600281905550806000806101000a81548173ffffffffffffffffffffffffffffffffffffffff021916908373ffffffffffffffffffffffffffffffffffffffff1602179055506100826100e5565b604051809103906000f08015801561009e573d6000803e3d6000fd5b50600160006101000a81548173ffffffffffffffffffffffffffffffffffffffff021916908373ffffffffffffffffffffffffffffffffffffffff160217905550506100f5565b604051611d6380611d6483390190565b611c60806101046000396000f3006080604052600436106100f1576000357c0100000000000000000000000000000000000000000000000000000000900463ffffffff1680630f0f3ad8146100f657806319b732f5146101485780631a4897be146101735780631b5e1473146101ca57806331c8d239146102215780633790cf57146102735780636d3c6275146102b85780637583e607146103135780637f24ebd11461036957806386ec456a146103bb578063b33110861461040d578063b6b55f2514610438578063bf31eb0b14610470578063c1b76513146104c6578063c5d58df1146104f1578063df16a10514610563578063e157b254146105b9575b600080fd5b34801561010257600080fd5b50610132600480360381019080803561ffff169060200190929190803560ff169060200190929190505050610610565b6040518082815260200191505060405180910390f35b34801561015457600080fd5b5061015d610635565b6040518082815260200191505060405180910390f35b34801561017f57600080fd5b5061018861063b565b604051808273ffffffffffffffffffffffffffffffffffffffff1673ffffffffffffffffffffffffffffffffffffffff16815260200191505060405180910390f35b3480156101d657600080fd5b5061020b600480360381019080803573ffffffffffffffffffffffffffffffffffffffff169060200190929190505050610661565b6040518082815260200191505060405180910390f35b34801561022d57600080fd5b5061025d600480360381019080803561ffff169060200190929190803560ff169060200190929190505050610679565b6040518082815260200191505060405180910390f35b34801561027f57600080fd5b5061029e6004803603810190808035906020019092919050505061069e565b604051808215151515815260200191505060405180910390f35b3480156102c457600080fd5b506102f9600480360381019080803573ffffffffffffffffffffffffffffffffffffffff169060200190929190505050610a1c565b604051808215151515815260200191505060405180910390f35b34801561031f57600080fd5b5061034f600480360381019080803561ffff169060200190929190803560ff169060200190929190505050610a3c565b604051808215151515815260200191505060405180910390f35b34801561037557600080fd5b506103a5600480360381019080803561ffff169060200190929190803560ff169060200190929190505050610f51565b6040518082815260200191505060405180910390f35b3480156103c757600080fd5b506103f7600480360381019080803561ffff169060200190929190803560ff169060200190929190505050610f76565b6040518082815260200191505060405180910390f35b34801561041957600080fd5b50610422610f9b565b6040518082815260200191505060405180910390f35b61045660048036038101908080359060200190929190505050610fa1565b604051808215151515815260200191505060405180910390f35b34801561047c57600080fd5b506104ac600480360381019080803561ffff169060200190929190803560ff1690602001909291905050506115f3565b604051808215151515815260200191505060405180910390f35b3480156104d257600080fd5b506104db611972565b6040518082815260200191505060405180910390f35b3480156104fd57600080fd5b5061054d600480360381019080803573ffffffffffffffffffffffffffffffffffffffff169060200190929190803561ffff169060200190929190803560ff169060200190929190505050611978565b6040518082815260200191505060405180910390f35b34801561056f57600080fd5b5061059f600480360381019080803561ffff169060200190929190803560ff1690602001909291905050506119aa565b604051808215151515815260200191505060405180910390f35b3480156105c557600080fd5b506105fa600480360381019080803573ffffffffffffffffffffffffffffffffffffffff1690602001909291905050506119d9565b6040518082815260200191505060405180910390f35b6006602052816000526040600020602052806000526040600020600091509150505481565b600c5481565b600160009054906101000a900473ffffffffffffffffffffffffffffffffffffffff1681565b600a6020528060005260406000206000915090505481565b6007602052816000526040600020602052806000526040600020600091509150505481565b6000600360003373ffffffffffffffffffffffffffffffffffffffff1673ffffffffffffffffffffffffffffffffffffffff16815260200190815260200160002060009054906101000a900460ff16151515610762576040517f08c379a000000000000000000000000000000000000000000000000000000000815260040180806020018281038252601e8152602001807f6d73672e73656e646572206d757374206e6f742062652072657469726564000081525060200191505060405180910390fd5b6001600360003373ffffffffffffffffffffffffffffffffffffffff1673ffffffffffffffffffffffffffffffffffffffff16815260200190815260200160002060006101000a81548160ff021916908315150217905550600160009054906101000a900473ffffffffffffffffffffffffffffffffffffffff1673ffffffffffffffffffffffffffffffffffffffff166379cc679033846040518363ffffffff167c0100000000000000000000000000000000000000000000000000000000028152600401808373ffffffffffffffffffffffffffffffffffffffff1673ffffffffffffffffffffffffffffffffffffffff16815260200182815260200192505050600060405180830381600087803b15801561087f57600080fd5b505af1158015610893573d6000803e3d6000fd5b50505050600a60003373ffffffffffffffffffffffffffffffffffffffff1673ffffffffffffffffffffffffffffffffffffffff16815260200190815260200160002054828115156108e157fe5b04600b60003373ffffffffffffffffffffffffffffffffffffffff1673ffffffffffffffffffffffffffffffffffffffff16815260200190815260200160002081905550600b60003373ffffffffffffffffffffffffffffffffffffffff1673ffffffffffffffffffffffffffffffffffffffff16815260200190815260200160002054600c600082825401925050819055503373ffffffffffffffffffffffffffffffffffffffff167f259eea40cd1a9fc2e850006eade5cbbe9e3b0fd4458527750b9312b1f22ff7a283600b60003373ffffffffffffffffffffffffffffffffffffffff1673ffffffffffffffffffffffffffffffffffffffff16815260200190815260200160002054600c5460405180848152602001838152602001828152602001935050505060405180910390a260019050919050565b60036020528060005260406000206000915054906101000a900460ff1681565b6000806000806000600360003373ffffffffffffffffffffffffffffffffffffffff1673ffffffffffffffffffffffffffffffffffffffff16815260200190815260200160002060009054906101000a900460ff161515610b05576040517f08c379a000000000000000000000000000000000000000000000000000000000815260040180806020018281038252601a8152602001807f6d73672e73656e646572206d757374206265207265746972656400000000000081525060200191505060405180910390fd5b600960008861ffff1661ffff16815260200190815260200160002060008760ff1660ff16815260200190815260200160002060009054906101000a900460ff16151515610bba576040517f08c379a000000000000000000000000000000000000000000000000000000000815260040180806020018281038252601c8152602001807f7769746864726177616c206f6e6c7920616c6c6f776564206f6e63650000000081525060200191505060405180910390fd5b6001600960008961ffff1661ffff16815260200190815260200160002060008860ff1660ff16815260200190815260200160002060006101000a81548160ff021916908315150217905550600c54600b60003373ffffffffffffffffffffffffffffffffffffffff1673ffffffffffffffffffffffffffffffffffffffff16815260200190815260200160002054811515610c5157fe5b0493506000600160009054906101000a900473ffffffffffffffffffffffffffffffffffffffff1673ffffffffffffffffffffffffffffffffffffffff166318160ddd6040518163ffffffff167c0100000000000000000000000000000000000000000000000000000000028152600401602060405180830381600087803b158015610cdc57600080fd5b505af1158015610cf0573d6000803e3d6000fd5b505050506040513d6020811015610d0657600080fd5b81019080805190602001909291905050501115610dee57600160009054906101000a900473ffffffffffffffffffffffffffffffffffffffff1673ffffffffffffffffffffffffffffffffffffffff166318160ddd6040518163ffffffff167c0100000000000000000000000000000000000000000000000000000000028152600401602060405180830381600087803b158015610da357600080fd5b505af1158015610db7573d6000803e3d6000fd5b505050506040513d6020811015610dcd57600080fd5b8101908080519060200190929190505050600c54811515610dea57fe5b0492505b82600103600560008961ffff1661ffff16815260200190815260200160002060008860ff1660ff1681526020019081526020016000205402833073ffffffffffffffffffffffffffffffffffffffff16310201915083820290503373ffffffffffffffffffffffffffffffffffffffff166108fc829081150290604051600060405180830381858888f19350505050158015610e8e573d6000803e3d6000fd5b503373ffffffffffffffffffffffffffffffffffffffff167fe08737ac48a1dab4b1a46c7dc9398bd5bfc6d7ad6fabb7cd8caa254de14def35858585856040518085815260200184815260200183815260200182815260200194505050505060405180910390a27f8a36f5a234186d446e36a7df36ace663a05a580d9bea2dd899c6dd76a075d5fa3073ffffffffffffffffffffffffffffffffffffffff16316040518082815260200191505060405180910390a1600194505050505092915050565b6008602052816000526040600020602052806000526040600020600091509150505481565b6005602052816000526040600020602052806000526040600020600091509150505481565b60025481565b6000806000348414151561101d576040517f08c379a000000000000000000000000000000000000000000000000000000000815260040180806020018281038252601b8152602001807f616d6f756e74206d75737420657175616c206d73672e76616c7565000000000081525060200191505060405180910390fd5b600084111515611095576040517f08c379a00000000000000000000000000000000000000000000000000000000081526004018080602001828103825260188152602001807f616d6f756e74206d75737420626520677265617465722030000000000000000081525060200191505060405180910390fd5b600360003373ffffffffffffffffffffffffffffffffffffffff1673ffffffffffffffffffffffffffffffffffffffff16815260200190815260200160002060009054906101000a900460ff16151515611157576040517f08c379a000000000000000000000000000000000000000000000000000000000815260040180806020018281038252601e8152602001807f6d73672e73656e646572206d757374206e6f742062652072657469726564000081525060200191505060405180910390fd5b6000809054906101000a900473ffffffffffffffffffffffffffffffffffffffff1673ffffffffffffffffffffffffffffffffffffffff166392d66313426040518263ffffffff167c010000000000000000000000000000000000000000000000000000000002815260040180828152602001915050602060405180830381600087803b1580156111e757600080fd5b505af11580156111fb573d6000803e3d6000fd5b505050506040513d602081101561121157600080fd5b810190808051906020019092919050505091506000809054906101000a900473ffffffffffffffffffffffffffffffffffffffff1673ffffffffffffffffffffffffffffffffffffffff1663a324ad24426040518263ffffffff167c010000000000000000000000000000000000000000000000000000000002815260040180828152602001915050602060405180830381600087803b1580156112b457600080fd5b505af11580156112c8573d6000803e3d6000fd5b505050506040513d60208110156112de57600080fd5b810190808051906020019092919050505090506001600660008461ffff1661ffff16815260200190815260200160002060008360ff1660ff1681526020019081526020016000206000828254019250508190555083600560008461ffff1661ffff16815260200190815260200160002060008360ff1660ff168152602001908152602001600020600082825401925050819055506000600460003373ffffffffffffffffffffffffffffffffffffffff1673ffffffffffffffffffffffffffffffffffffffff16815260200190815260200160002060008461ffff1661ffff16815260200190815260200160002060008360ff1660ff168152602001908152602001600020541415611439576001600a60003373ffffffffffffffffffffffffffffffffffffffff1673ffffffffffffffffffffffffffffffffffffffff168152602001908152602001600020600082825401925050819055505b83600460003373ffffffffffffffffffffffffffffffffffffffff1673ffffffffffffffffffffffffffffffffffffffff16815260200190815260200160002060008461ffff1661ffff16815260200190815260200160002060008360ff1660ff16815260200190815260200160002060008282540192505081905550600860008361ffff1661ffff16815260200190815260200160002060008260ff1660ff168152602001908152602001600020548411156115285783600860008461ffff1661ffff16815260200190815260200160002060008360ff1660ff168152602001908152602001600020819055505b600760008361ffff1661ffff16815260200190815260200160002060008260ff1660ff1681526020019081526020016000205484101561159a5783600760008461ffff1661ffff16815260200190815260200160002060008360ff1660ff168152602001908152602001600020819055505b3373ffffffffffffffffffffffffffffffffffffffff167fe1fffcc4923d04b559f4d29a8bfc6cda04eb5b0d3c460751c2402c5c5cc9109c856040518082815260200191505060405180910390a2600192505050919050565b600080600080600080600360003373ffffffffffffffffffffffffffffffffffffffff1673ffffffffffffffffffffffffffffffffffffffff16815260200190815260200160002060009054906101000a900460ff161515156116be576040517f08c379a000000000000000000000000000000000000000000000000000000000815260040180806020018281038252601e8152602001807f6d73672e73656e646572206d757374206e6f742062652072657469726564000081525060200191505060405180910390fd5b600460003373ffffffffffffffffffffffffffffffffffffffff1673ffffffffffffffffffffffffffffffffffffffff16815260200190815260200160002060008961ffff1661ffff16815260200190815260200160002060008860ff1660ff168152602001908152602001600020549450600760008961ffff1661ffff16815260200190815260200160002060008860ff1660ff168152602001908152602001600020549350600860008961ffff1661ffff16815260200190815260200160002060008860ff1660ff1681526020019081526020016000205492506117a488886119f1565b915081851015156117e6576117b7611a6b565b670de0b6b3a764000083850301670de0b6b3a7640000848803018115156117da57fe5b04600101029050611802565b6117ee611a6b565b8483038587038115156117fd57fe5b040290505b600160009054906101000a900473ffffffffffffffffffffffffffffffffffffffff1673ffffffffffffffffffffffffffffffffffffffff166340c10f193366038d7ea4c6800084026040518363ffffffff167c0100000000000000000000000000000000000000000000000000000000028152600401808373ffffffffffffffffffffffffffffffffffffffff1673ffffffffffffffffffffffffffffffffffffffff16815260200182815260200192505050602060405180830381600087803b1580156118d057600080fd5b505af11580156118e4573d6000803e3d6000fd5b505050506040513d60208110156118fa57600080fd5b8101908080519060200190929190505050503373ffffffffffffffffffffffffffffffffffffffff167f47cee97cb7acd717b3c0aa1435d004cd5b3c8c57d70dbceb4e4458bbd60e39d466038d7ea4c6800083026040518082815260200191505060405180910390a260019550505050505092915050565b600d5481565b600460205282600052604060002060205281600052604060002060205280600052604060002060009250925050505481565b60096020528160005260406000206020528060005260406000206000915091509054906101000a900460ff1681565b600b6020528060005260406000206000915090505481565b6000600660008461ffff1661ffff16815260200190815260200160002060008360ff1660ff16815260200190815260200160002054600560008561ffff1661ffff16815260200190815260200160002060008460ff1660ff16815260200190815260200160002054811515611a6257fe5b04905092915050565b60008060008060009054906101000a900473ffffffffffffffffffffffffffffffffffffffff1673ffffffffffffffffffffffffffffffffffffffff166392d663136002546040518263ffffffff167c010000000000000000000000000000000000000000000000000000000002815260040180828152602001915050602060405180830381600087803b158015611b0257600080fd5b505af1158015611b16573d6000803e3d6000fd5b505050506040513d6020811015611b2c57600080fd5b81019080805190602001909291905050506000809054906101000a900473ffffffffffffffffffffffffffffffffffffffff1673ffffffffffffffffffffffffffffffffffffffff166392d66313426040518263ffffffff167c010000000000000000000000000000000000000000000000000000000002815260040180828152602001915050602060405180830381600087803b158015611bcd57600080fd5b505af1158015611be1573d6000803e3d6000fd5b505050506040513d6020811015611bf757600080fd5b81019080805190602001909291905050506001010361ffff16915081600f026105dc0390506103e8811015611c2c576103e890505b8092505050905600a165627a7a72305820e4a78655b717f85387643475414c5b1be80609c70a0f8b2bed132ddda425b72f002960806040526000600460006101000a81548160ff021916908315150217905550610040336003610045640100000000026118f6179091906401000000009004565b6100df565b600073ffffffffffffffffffffffffffffffffffffffff168173ffffffffffffffffffffffffffffffffffffffff161415151561008157600080fd5b60018260000160008373ffffffffffffffffffffffffffffffffffffffff1673ffffffffffffffffffffffffffffffffffffffff16815260200190815260200160002060006101000a81548160ff0219169083151502179055505050565b611c75806100ee6000396000f300608060405260043610610107576000357c0100000000000000000000000000000000000000000000000000000000900463ffffffff16806305d2035b1461010c57806306fdde031461013b578063095ea7b3146101cb57806318160ddd1461023057806323b872dd1461025b578063313ce567146102e0578063395093511461031157806340c10f191461037657806342966c68146103db57806370a082311461040857806379cc67901461045f5780637d64bcb4146104ac57806395d89b41146104db578063983b2d561461056b57806398650275146105ae578063a457c2d7146105c5578063a9059cbb1461062a578063aa271e1a1461068f578063dd62ed3e146106ea575b600080fd5b34801561011857600080fd5b50610121610761565b604051808215151515815260200191505060405180910390f35b34801561014757600080fd5b50610150610778565b6040518080602001828103825283818151815260200191508051906020019080838360005b83811015610190578082015181840152602081019050610175565b50505050905090810190601f1680156101bd5780820380516001836020036101000a031916815260200191505b509250505060405180910390f35b3480156101d757600080fd5b50610216600480360381019080803573ffffffffffffffffffffffffffffffffffffffff169060200190929190803590602001909291905050506107b1565b604051808215151515815260200191505060405180910390f35b34801561023c57600080fd5b506102456108de565b6040518082815260200191505060405180910390f35b34801561026757600080fd5b506102c6600480360381019080803573ffffffffffffffffffffffffffffffffffffffff169060200190929190803573ffffffffffffffffffffffffffffffffffffffff169060200190929190803590602001909291905050506108e8565b604051808215151515815260200191505060405180910390f35b3480156102ec57600080fd5b506102f5610ca3565b604051808260ff1660ff16815260200191505060405180910390f35b34801561031d57600080fd5b5061035c600480360381019080803573ffffffffffffffffffffffffffffffffffffffff16906020019092919080359060200190929190505050610ca8565b604051808215151515815260200191505060405180910390f35b34801561038257600080fd5b506103c1600480360381019080803573ffffffffffffffffffffffffffffffffffffffff16906020019092919080359060200190929190505050610edf565b604051808215151515815260200191505060405180910390f35b3480156103e757600080fd5b5061040660048036038101908080359060200190929190505050610f25565b005b34801561041457600080fd5b50610449600480360381019080803573ffffffffffffffffffffffffffffffffffffffff169060200190929190505050610f32565b6040518082815260200191505060405180910390f35b34801561046b57600080fd5b506104aa600480360381019080803573ffffffffffffffffffffffffffffffffffffffff16906020019092919080359060200190929190505050610f7a565b005b3480156104b857600080fd5b506104c1610f88565b604051808215151515815260200191505060405180910390f35b3480156104e757600080fd5b506104f0611008565b6040518080602001828103825283818151815260200191508051906020019080838360005b83811015610530578082015181840152602081019050610515565b50505050905090810190601f16801561055d5780820380516001836020036101000a031916815260200191505b509250505060405180910390f35b34801561057757600080fd5b506105ac600480360381019080803573ffffffffffffffffffffffffffffffffffffffff169060200190929190505050611041565b005b3480156105ba57600080fd5b506105c36110af565b005b3480156105d157600080fd5b50610610600480360381019080803573ffffffffffffffffffffffffffffffffffffffff169060200190929190803590602001909291905050506110c5565b604051808215151515815260200191505060405180910390f35b34801561063657600080fd5b50610675600480360381019080803573ffffffffffffffffffffffffffffffffffffffff169060200190929190803590602001909291905050506112fc565b604051808215151515815260200191505060405180910390f35b34801561069b57600080fd5b506106d0600480360381019080803573ffffffffffffffffffffffffffffffffffffffff16906020019092919050505061151c565b604051808215151515815260200191505060405180910390f35b3480156106f657600080fd5b5061074b600480360381019080803573ffffffffffffffffffffffffffffffffffffffff169060200190929190803573ffffffffffffffffffffffffffffffffffffffff169060200190929190505050611539565b6040518082815260200191505060405180910390f35b6000600460009054906101000a900460ff16905090565b6040805190810160405280601b81526020017f446563656e7472616c697a65642050656e73696f6e20546f6b656e000000000081525081565b60008073ffffffffffffffffffffffffffffffffffffffff168373ffffffffffffffffffffffffffffffffffffffff16141515156107ee57600080fd5b81600160003373ffffffffffffffffffffffffffffffffffffffff1673ffffffffffffffffffffffffffffffffffffffff16815260200190815260200160002060008573ffffffffffffffffffffffffffffffffffffffff1673ffffffffffffffffffffffffffffffffffffffff168152602001908152602001600020819055508273ffffffffffffffffffffffffffffffffffffffff163373ffffffffffffffffffffffffffffffffffffffff167f8c5be1e5ebec7d5bd14f71427d1e84f3dd0314c0f7b2291e5b200ac8c7c3b925846040518082815260200191505060405180910390a36001905092915050565b6000600254905090565b60008060008573ffffffffffffffffffffffffffffffffffffffff1673ffffffffffffffffffffffffffffffffffffffff16815260200190815260200160002054821115151561093757600080fd5b600160008573ffffffffffffffffffffffffffffffffffffffff1673ffffffffffffffffffffffffffffffffffffffff16815260200190815260200160002060003373ffffffffffffffffffffffffffffffffffffffff1673ffffffffffffffffffffffffffffffffffffffff1681526020019081526020016000205482111515156109c257600080fd5b600073ffffffffffffffffffffffffffffffffffffffff168373ffffffffffffffffffffffffffffffffffffffff16141515156109fe57600080fd5b610a4f826000808773ffffffffffffffffffffffffffffffffffffffff1673ffffffffffffffffffffffffffffffffffffffff168152602001908152602001600020546115c090919063ffffffff16565b6000808673ffffffffffffffffffffffffffffffffffffffff1673ffffffffffffffffffffffffffffffffffffffff16815260200190815260200160002081905550610ae2826000808673ffffffffffffffffffffffffffffffffffffffff1673ffffffffffffffffffffffffffffffffffffffff168152602001908152602001600020546115e190919063ffffffff16565b6000808573ffffffffffffffffffffffffffffffffffffffff1673ffffffffffffffffffffffffffffffffffffffff16815260200190815260200160002081905550610bb382600160008773ffffffffffffffffffffffffffffffffffffffff1673ffffffffffffffffffffffffffffffffffffffff16815260200190815260200160002060003373ffffffffffffffffffffffffffffffffffffffff1673ffffffffffffffffffffffffffffffffffffffff168152602001908152602001600020546115c090919063ffffffff16565b600160008673ffffffffffffffffffffffffffffffffffffffff1673ffffffffffffffffffffffffffffffffffffffff16815260200190815260200160002060003373ffffffffffffffffffffffffffffffffffffffff1673ffffffffffffffffffffffffffffffffffffffff168152602001908152602001600020819055508273ffffffffffffffffffffffffffffffffffffffff168473ffffffffffffffffffffffffffffffffffffffff167fddf252ad1be2c89b69c2b068fc378daa952ba7f163c4a11628f55a4df523b3ef846040518082815260200191505060405180910390a3600190509392505050565b601281565b60008073ffffffffffffffffffffffffffffffffffffffff168373ffffffffffffffffffffffffffffffffffffffff1614151515610ce557600080fd5b610d7482600160003373ffffffffffffffffffffffffffffffffffffffff1673ffffffffffffffffffffffffffffffffffffffff16815260200190815260200160002060008673ffffffffffffffffffffffffffffffffffffffff1673ffffffffffffffffffffffffffffffffffffffff168152602001908152602001600020546115e190919063ffffffff16565b600160003373ffffffffffffffffffffffffffffffffffffffff1673ffffffffffffffffffffffffffffffffffffffff16815260200190815260200160002060008573ffffffffffffffffffffffffffffffffffffffff1673ffffffffffffffffffffffffffffffffffffffff168152602001908152602001600020819055508273ffffffffffffffffffffffffffffffffffffffff163373ffffffffffffffffffffffffffffffffffffffff167f8c5be1e5ebec7d5bd14f71427d1e84f3dd0314c0f7b2291e5b200ac8c7c3b925600160003373ffffffffffffffffffffffffffffffffffffffff1673ffffffffffffffffffffffffffffffffffffffff16815260200190815260200160002060008773ffffffffffffffffffffffffffffffffffffffff1673ffffffffffffffffffffffffffffffffffffffff168152602001908152602001600020546040518082815260200191505060405180910390a36001905092915050565b6000610eea3361151c565b1515610ef557600080fd5b600460009054906101000a900460ff16151515610f1157600080fd5b610f1b8383611602565b6001905092915050565b610f2f3382611740565b50565b60008060008373ffffffffffffffffffffffffffffffffffffffff1673ffffffffffffffffffffffffffffffffffffffff168152602001908152602001600020549050919050565b610f84828261174e565b5050565b6000610f933361151c565b1515610f9e57600080fd5b600460009054906101000a900460ff16151515610fba57600080fd5b6001600460006101000a81548160ff0219169083151502179055507fb828d9b5c78095deeeeff2eca2e5d4fe046ce3feb4c99702624a3fd384ad2dbc60405160405180910390a16001905090565b6040805190810160405280600381526020017f445054000000000000000000000000000000000000000000000000000000000081525081565b61104a3361151c565b151561105557600080fd5b6110698160036118f690919063ffffffff16565b8073ffffffffffffffffffffffffffffffffffffffff167f6ae172837ea30b801fbfcdd4108aa1d5bf8ff775444fd70256b44e6bf3dfc3f660405160405180910390a250565b6110c333600361199090919063ffffffff16565b565b60008073ffffffffffffffffffffffffffffffffffffffff168373ffffffffffffffffffffffffffffffffffffffff161415151561110257600080fd5b61119182600160003373ffffffffffffffffffffffffffffffffffffffff1673ffffffffffffffffffffffffffffffffffffffff16815260200190815260200160002060008673ffffffffffffffffffffffffffffffffffffffff1673ffffffffffffffffffffffffffffffffffffffff168152602001908152602001600020546115c090919063ffffffff16565b600160003373ffffffffffffffffffffffffffffffffffffffff1673ffffffffffffffffffffffffffffffffffffffff16815260200190815260200160002060008573ffffffffffffffffffffffffffffffffffffffff1673ffffffffffffffffffffffffffffffffffffffff168152602001908152602001600020819055508273ffffffffffffffffffffffffffffffffffffffff163373ffffffffffffffffffffffffffffffffffffffff167f8c5be1e5ebec7d5bd14f71427d1e84f3dd0314c0f7b2291e5b200ac8c7c3b925600160003373ffffffffffffffffffffffffffffffffffffffff1673ffffffffffffffffffffffffffffffffffffffff16815260200190815260200160002060008773ffffffffffffffffffffffffffffffffffffffff1673ffffffffffffffffffffffffffffffffffffffff168152602001908152602001600020546040518082815260200191505060405180910390a36001905092915050565b60008060003373ffffffffffffffffffffffffffffffffffffffff1673ffffffffffffffffffffffffffffffffffffffff16815260200190815260200160002054821115151561134b57600080fd5b600073ffffffffffffffffffffffffffffffffffffffff168373ffffffffffffffffffffffffffffffffffffffff161415151561138757600080fd5b6113d8826000803373ffffffffffffffffffffffffffffffffffffffff1673ffffffffffffffffffffffffffffffffffffffff168152602001908152602001600020546115c090919063ffffffff16565b6000803373ffffffffffffffffffffffffffffffffffffffff1673ffffffffffffffffffffffffffffffffffffffff1681526020019081526020016000208190555061146b826000808673ffffffffffffffffffffffffffffffffffffffff1673ffffffffffffffffffffffffffffffffffffffff168152602001908152602001600020546115e190919063ffffffff16565b6000808573ffffffffffffffffffffffffffffffffffffffff1673ffffffffffffffffffffffffffffffffffffffff168152602001908152602001600020819055508273ffffffffffffffffffffffffffffffffffffffff163373ffffffffffffffffffffffffffffffffffffffff167fddf252ad1be2c89b69c2b068fc378daa952ba7f163c4a11628f55a4df523b3ef846040518082815260200191505060405180910390a36001905092915050565b6000611532826003611a2a90919063ffffffff16565b9050919050565b6000600160008473ffffffffffffffffffffffffffffffffffffffff1673ffffffffffffffffffffffffffffffffffffffff16815260200190815260200160002060008373ffffffffffffffffffffffffffffffffffffffff1673ffffffffffffffffffffffffffffffffffffffff16815260200190815260200160002054905092915050565b6000808383111515156115d257600080fd5b82840390508091505092915050565b60008082840190508381101515156115f857600080fd5b8091505092915050565b60008273ffffffffffffffffffffffffffffffffffffffff161415151561162857600080fd5b61163d816002546115e190919063ffffffff16565b600281905550611694816000808573ffffffffffffffffffffffffffffffffffffffff1673ffffffffffffffffffffffffffffffffffffffff168152602001908152602001600020546115e190919063ffffffff16565b6000808473ffffffffffffffffffffffffffffffffffffffff1673ffffffffffffffffffffffffffffffffffffffff168152602001908152602001600020819055508173ffffffffffffffffffffffffffffffffffffffff16600073ffffffffffffffffffffffffffffffffffffffff167fddf252ad1be2c89b69c2b068fc378daa952ba7f163c4a11628f55a4df523b3ef836040518082815260200191505060405180910390a35050565b61174a8282611abe565b5050565b600160008373ffffffffffffffffffffffffffffffffffffffff1673ffffffffffffffffffffffffffffffffffffffff16815260200190815260200160002060003373ffffffffffffffffffffffffffffffffffffffff1673ffffffffffffffffffffffffffffffffffffffff1681526020019081526020016000205481111515156117d957600080fd5b61186881600160008573ffffffffffffffffffffffffffffffffffffffff1673ffffffffffffffffffffffffffffffffffffffff16815260200190815260200160002060003373ffffffffffffffffffffffffffffffffffffffff1673ffffffffffffffffffffffffffffffffffffffff168152602001908152602001600020546115c090919063ffffffff16565b600160008473ffffffffffffffffffffffffffffffffffffffff1673ffffffffffffffffffffffffffffffffffffffff16815260200190815260200160002060003373ffffffffffffffffffffffffffffffffffffffff1673ffffffffffffffffffffffffffffffffffffffff168152602001908152602001600020819055506118f28282611740565b5050565b600073ffffffffffffffffffffffffffffffffffffffff168173ffffffffffffffffffffffffffffffffffffffff161415151561193257600080fd5b60018260000160008373ffffffffffffffffffffffffffffffffffffffff1673ffffffffffffffffffffffffffffffffffffffff16815260200190815260200160002060006101000a81548160ff0219169083151502179055505050565b600073ffffffffffffffffffffffffffffffffffffffff168173ffffffffffffffffffffffffffffffffffffffff16141515156119cc57600080fd5b60008260000160008373ffffffffffffffffffffffffffffffffffffffff1673ffffffffffffffffffffffffffffffffffffffff16815260200190815260200160002060006101000a81548160ff0219169083151502179055505050565b60008073ffffffffffffffffffffffffffffffffffffffff168273ffffffffffffffffffffffffffffffffffffffff1614151515611a6757600080fd5b8260000160008373ffffffffffffffffffffffffffffffffffffffff1673ffffffffffffffffffffffffffffffffffffffff16815260200190815260200160002060009054906101000a900460ff16905092915050565b60008273ffffffffffffffffffffffffffffffffffffffff1614151515611ae457600080fd5b6000808373ffffffffffffffffffffffffffffffffffffffff1673ffffffffffffffffffffffffffffffffffffffff168152602001908152602001600020548111151515611b3157600080fd5b611b46816002546115c090919063ffffffff16565b600281905550611b9d816000808573ffffffffffffffffffffffffffffffffffffffff1673ffffffffffffffffffffffffffffffffffffffff168152602001908152602001600020546115c090919063ffffffff16565b6000808473ffffffffffffffffffffffffffffffffffffffff1673ffffffffffffffffffffffffffffffffffffffff16815260200190815260200160002081905550600073ffffffffffffffffffffffffffffffffffffffff168273ffffffffffffffffffffffffffffffffffffffff167fddf252ad1be2c89b69c2b068fc378daa952ba7f163c4a11628f55a4df523b3ef836040518082815260200191505060405180910390a350505600a165627a7a723058208e75c8623fad2b896ccb223ddc6d82b911d0e9b2994fb09f13f31efb7797e5410029",
  "source": "pragma solidity ^0.4.0;\r\n\r\nimport \"./DecentralizedPensionToken.sol\";\r\nimport \"./DateTime.sol\";\r\n\r\ncontract DecentralizedPension {\r\n    DateTime dateTime;\r\n    DecentralizedPensionToken public pensionToken;\r\n\r\n    event Debug(uint256 data);\r\n    event Deposit(address indexed sender, uint256 amount);\r\n    event Claim(address indexed sender, uint256 amount);\r\n    event Withdraw(address indexed sender, uint256 myActivatedPart, uint256 distributionPercentage, uint256 distributionAmount, uint256 amount);\r\n    event Retire(address indexed sender, uint256 amount, uint256 monthFactor, uint256 totalMonthFactor);\r\n\r\n    uint public creationTimestamp;\r\n\r\n    mapping(address => bool) public isRetired;\r\n\r\n    mapping(address => mapping(uint16 => mapping(uint8 => uint256))) public depositsByUser;\r\n    mapping(uint16 => mapping(uint8 => uint256)) public totalDepositsAmountByMonth;\r\n    mapping(uint16 => mapping(uint8 => uint256)) public totalDepositsByMonth;\r\n    mapping(uint16 => mapping(uint8 => uint256)) public minDepositByMonth;\r\n    mapping(uint16 => mapping(uint8 => uint256)) public maxDepositByMonth;\r\n    mapping(uint16 => mapping(uint8 => bool)) public hasWithdrawed;\r\n\r\n    mapping(address => uint256) public monthPaidCount;\r\n    mapping(address => uint256) public monthFactors;\r\n    uint256 public totalMonthFactor;\r\n\r\n    uint256 public globalFond;\r\n\r\n\r\n    constructor(address _dateTime) public {\r\n        creationTimestamp = now;\r\n        dateTime = DateTime(_dateTime);\r\n        pensionToken = new DecentralizedPensionToken();\r\n    }\r\n\r\n    /*\r\n     * @dev Deposit eth for for the current month\r\n     */\r\n    function deposit(uint256 _amount) public payable returns (bool) {\r\n        require(_amount == msg.value, \"amount must equal msg.value\");\r\n        require(_amount > 0, \"amount must be greater 0\");\r\n        require(!isRetired[msg.sender], \"msg.sender must not be retired\");\r\n\r\n        uint16 _year = dateTime.getYear(now);\r\n        uint8 _month = dateTime.getMonth(now);\r\n\r\n        totalDepositsByMonth[_year][_month] += 1;\r\n        totalDepositsAmountByMonth[_year][_month] += _amount;\r\n\r\n        if (depositsByUser[msg.sender][_year][_month] == 0) {\r\n            monthPaidCount[msg.sender] += 1;\r\n        }\r\n\r\n        depositsByUser[msg.sender][_year][_month] += _amount;\r\n\r\n        if (_amount > maxDepositByMonth[_year][_month]) {\r\n            maxDepositByMonth[_year][_month] = _amount;\r\n        }\r\n        if (_amount < minDepositByMonth[_year][_month]) {\r\n            minDepositByMonth[_year][_month] = _amount;\r\n        }\r\n\r\n        emit Deposit(msg.sender, _amount);\r\n\r\n        return true;\r\n    }\r\n\r\n    /*\r\n     * @dev Call with period to claim all pension tokens for that period\r\n     */\r\n    function claim(uint16 _year, uint8 _month) public returns (bool) {\r\n        require(!isRetired[msg.sender], \"msg.sender must not be retired\");\r\n\r\n        uint256 _amount = depositsByUser[msg.sender][_year][_month];\r\n        uint256 _minAmount = minDepositByMonth[_year][_month];\r\n        uint256 _maxAmount = maxDepositByMonth[_year][_month];\r\n\r\n        uint256 _targetPrice = targetPrice(_year, _month);\r\n\r\n        uint256 _tokenAmount;\r\n        if (_amount >= _targetPrice) {\r\n            _tokenAmount = (1 + ((_amount - _targetPrice + 10 ** 18) / (_maxAmount - _targetPrice + 10 ** 18))) * bonusFactor();\r\n        } else {\r\n            _tokenAmount = ((_amount - _minAmount) / (_targetPrice - _minAmount)) * bonusFactor();\r\n        }\r\n\r\n        pensionToken.mint(msg.sender, _tokenAmount * 10 ** 15);\r\n        emit Claim(msg.sender, _tokenAmount * 10 ** 15);\r\n\r\n        return true;\r\n    }\r\n\r\n    function retire(uint256 _amount) public returns (bool)  {\r\n        require(!isRetired[msg.sender], \"msg.sender must not be retired\");\r\n\r\n        isRetired[msg.sender] = true;\r\n\r\n        pensionToken.burnFrom(msg.sender, _amount);\r\n\r\n        monthFactors[msg.sender] = _amount / monthPaidCount[msg.sender];\r\n        totalMonthFactor += monthFactors[msg.sender];\r\n\r\n        emit Retire(msg.sender, _amount, monthFactors[msg.sender], totalMonthFactor);\r\n\r\n        return true;\r\n    }\r\n\r\n    function withdraw(uint16 _year, uint8 _month) public returns (bool) {\r\n        require(isRetired[msg.sender], \"msg.sender must be retired\");\r\n        require(!hasWithdrawed[_year][_month], \"withdrawal only allowed once\");\r\n\r\n        hasWithdrawed[_year][_month] = true;\r\n\r\n        uint256 myActivatedPart = monthFactors[msg.sender] / totalMonthFactor;\r\n\r\n        uint256 distributionPercentage;\r\n        if (pensionToken.totalSupply() > 0) {\r\n            distributionPercentage = totalMonthFactor / pensionToken.totalSupply();\r\n        }\r\n\r\n        //this.value\r\n\r\n        uint256 distributionAmount = (address(this).balance * distributionPercentage) + totalDepositsAmountByMonth[_year][_month] * (1 - distributionPercentage);\r\n\r\n        uint256 pensionPayout = distributionAmount * myActivatedPart;\r\n\r\n        msg.sender.transfer(pensionPayout);\r\n        emit Withdraw(msg.sender, myActivatedPart, distributionPercentage, distributionAmount, pensionPayout);\r\n        emit Debug(address(this).balance);\r\n\r\n        return true;\r\n    }\r\n\r\n    function bonusFactor() internal view returns (uint256) {\r\n        uint256 _yearsRunning = 1 + dateTime.getYear(now) - dateTime.getYear(creationTimestamp);\r\n\r\n        uint256 _bonusFactor = 1500 - (15 * _yearsRunning);\r\n        if (_bonusFactor < 1000) {\r\n            _bonusFactor = 1000;\r\n        }\r\n\r\n        return _bonusFactor;\r\n    }\r\n\r\n    /*\r\n     * TODO: use median instead of average. But we need a sorted array first\r\n     */\r\n    function targetPrice(uint16 _year, uint8 _month) internal view returns (uint256) {\r\n        return totalDepositsAmountByMonth[_year][_month] / totalDepositsByMonth[_year][_month];\r\n    }\r\n}\r\n",
  "sourcePath": "C:/Users/fabia/projects/ETHBerlin/contracts/DecentralizedPension.sol",
  "compiler": {
    "name": "solc",
    "version": "0.4.24+commit.e67f0147.Emscripten.clang"
  },
  "schemaVersion": "3.0.0-beta.0",
  "updatedAt": "2018-09-08T20:40:06.473Z"
}